{
  "_format": "hh-sol-artifact-1",
  "contractName": "TrustVaultV2",
  "sourceName": "contracts/TrustVault.sol",
  "abi": [
    {
      "anonymous": false,
      "inputs": [
        {
          "indexed": true,
          "internalType": "address",
          "name": "beneficiary",
          "type": "address"
        },
        {
          "indexed": false,
          "internalType": "uint256",
          "name": "amount",
          "type": "uint256"
        }
      ],
      "name": "AutoReleased",
      "type": "event"
    },
    {
      "anonymous": false,
      "inputs": [
        {
          "indexed": true,
          "internalType": "address",
          "name": "sender",
          "type": "address"
        },
        {
          "indexed": false,
          "internalType": "uint256",
          "name": "amount",
          "type": "uint256"
        }
      ],
      "name": "Deposited",
      "type": "event"
    },
    {
      "anonymous": false,
      "inputs": [
        {
          "indexed": true,
          "internalType": "address",
          "name": "owner",
          "type": "address"
        },
        {
          "indexed": false,
          "internalType": "uint256",
          "name": "timestamp",
          "type": "uint256"
        }
      ],
      "name": "HeartbeatSent",
      "type": "event"
    },
    {
      "anonymous": false,
      "inputs": [
        {
          "indexed": true,
          "internalType": "address",
          "name": "owner",
          "type": "address"
        },
        {
          "indexed": false,
          "internalType": "uint256",
          "name": "amount",
          "type": "uint256"
        }
      ],
      "name": "Withdrawn",
      "type": "event"
    },
    {
      "inputs": [],
      "name": "autoRelease",
      "outputs": [],
      "stateMutability": "nonpayable",
      "type": "function"
    },
    {
      "inputs": [],
      "name": "beneficiary",
      "outputs": [
        {
          "internalType": "address payable",
          "name": "",
          "type": "address"
        }
      ],
      "stateMutability": "view",
      "type": "function"
    },
    {
      "inputs": [],
      "name": "deposit",
      "outputs": [],
      "stateMutability": "payable",
      "type": "function"
    },
    {
      "inputs": [],
      "name": "getVaultState",
      "outputs": [
        {
          "internalType": "address",
          "name": "_owner",
          "type": "address"
        },
        {
          "internalType": "address",
          "name": "_beneficiary",
          "type": "address"
        },
        {
          "internalType": "uint256",
          "name": "_lockDuration",
          "type": "uint256"
        },
        {
          "internalType": "uint256",
          "name": "_lastHeartbeat",
          "type": "uint256"
        },
        {
          "internalType": "bool",
          "name": "_released",
          "type": "bool"
        },
        {
          "internalType": "bool",
          "name": "_initialized",
          "type": "bool"
        },
        {
          "internalType": "uint256",
          "name": "_balance",
          "type": "uint256"
        }
      ],
      "stateMutability": "view",
      "type": "function"
    },
    {
      "inputs": [],
      "name": "heartbeat",
      "outputs": [],
      "stateMutability": "nonpayable",
      "type": "function"
    },
    {
      "inputs": [
        {
          "internalType": "address",
          "name": "_owner",
          "type": "address"
        },
        {
          "internalType": "address payable",
          "name": "_beneficiary",
          "type": "address"
        },
        {
          "internalType": "uint256",
          "name": "_lockDuration",
          "type": "uint256"
        }
      ],
      "name": "initialize",
      "outputs": [],
      "stateMutability": "nonpayable",
      "type": "function"
    },
    {
      "inputs": [],
      "name": "initialized",
      "outputs": [
        {
          "internalType": "bool",
          "name": "",
          "type": "bool"
        }
      ],
      "stateMutability": "view",
      "type": "function"
    },
    {
      "inputs": [],
      "name": "lastHeartbeat",
      "outputs": [
        {
          "internalType": "uint256",
          "name": "",
          "type": "uint256"
        }
      ],
      "stateMutability": "view",
      "type": "function"
    },
    {
      "inputs": [],
      "name": "lockDuration",
      "outputs": [
        {
          "internalType": "uint256",
          "name": "",
          "type": "uint256"
        }
      ],
      "stateMutability": "view",
      "type": "function"
    },
    {
      "inputs": [],
      "name": "owner",
      "outputs": [
        {
          "internalType": "address",
          "name": "",
          "type": "address"
        }
      ],
      "stateMutability": "view",
      "type": "function"
    },
    {
      "inputs": [],
      "name": "released",
      "outputs": [
        {
          "internalType": "bool",
          "name": "",
          "type": "bool"
        }
      ],
      "stateMutability": "view",
      "type": "function"
    },
    {
      "inputs": [
        {
          "internalType": "uint256",
          "name": "amount",
          "type": "uint256"
        }
      ],
      "name": "withdraw",
      "outputs": [],
      "stateMutability": "nonpayable",
      "type": "function"
    },
    {
      "stateMutability": "payable",
      "type": "receive"
    }
  ],
  "bytecode": "0x608060405234801561001057600080fd5b506109ff806100206000396000f3fe6080604052600436106100ab5760003560e01c80634a8c110a116100645780634a8c110a146101d357806369c1a7121461023d5780638da5cb5b146102535780639613252114610273578063a36693b11461028d578063d0e30db0146102a257600080fd5b806304554443146100ec578063158ef93e146101155780631794bb3c146101445780632e1a7d4d1461016657806338af3eed146101865780633defb962146101be57600080fd5b366100e75760405134815233907f2da466a7b24304f47e87fa2e1e5a81b9831ce54fec19055ce277ca2f39ba42c49060200160405180910390a2005b600080fd5b3480156100f857600080fd5b5061010260025481565b6040519081526020015b60405180910390f35b34801561012157600080fd5b5060045461013490610100900460ff1681565b604051901515815260200161010c565b34801561015057600080fd5b5061016461015f3660046108ef565b6102aa565b005b34801561017257600080fd5b50610164610181366004610930565b61041f565b34801561019257600080fd5b506001546101a6906001600160a01b031681565b6040516001600160a01b03909116815260200161010c565b3480156101ca57600080fd5b506101646105bb565b3480156101df57600080fd5b50600054600154600254600354600454604080516001600160a01b03968716815295909416602086015292840191909152606083015260ff8082161515608084015261010090910416151560a08201524760c082015260e00161010c565b34801561024957600080fd5b5061010260035481565b34801561025f57600080fd5b506000546101a6906001600160a01b031681565b34801561027f57600080fd5b506004546101349060ff1681565b34801561029957600080fd5b506101646106e0565b610164610863565b600454610100900460ff16156102fd5760405162461bcd60e51b8152602060048201526013602482015272105b1c9958591e481a5b9a5d1a585b1a5e9959606a1b60448201526064015b60405180910390fd5b6001600160a01b0383166103435760405162461bcd60e51b815260206004820152600d60248201526c24b73b30b634b21037bbb732b960991b60448201526064016102f4565b6001600160a01b03821661038f5760405162461bcd60e51b8152602060048201526013602482015272496e76616c69642062656e656669636961727960681b60448201526064016102f4565b600081116103d75760405162461bcd60e51b815260206004820152601560248201527424b73b30b634b2103637b1b590323ab930ba34b7b760591b60448201526064016102f4565b600080546001600160a01b039485166001600160a01b0319918216179091556001805493909416921691909117909155600255426003556004805461ffff1916610100179055565b6000546001600160a01b031633146104665760405162461bcd60e51b815260206004820152600a60248201526927b7363c9037bbb732b960b11b60448201526064016102f4565b60045460ff16156104895760405162461bcd60e51b81526004016102f490610949565b600454610100900460ff166104b05760405162461bcd60e51b81526004016102f490610979565b478111156104f75760405162461bcd60e51b8152602060048201526014602482015273496e73756666696369656e742062616c616e636560601b60448201526064016102f4565b604051600090339083908381818185875af1925050503d8060008114610539576040519150601f19603f3d011682016040523d82523d6000602084013e61053e565b606091505b50509050806105815760405162461bcd60e51b815260206004820152600f60248201526e151c985b9cd9995c8819985a5b1959608a1b60448201526064016102f4565b60405182815233907f7084f5476618d8e60b11ef0d7d3f06914655adb8793e28ff7f018d4c76d505d5906020015b60405180910390a25050565b6000546001600160a01b031633146106025760405162461bcd60e51b815260206004820152600a60248201526927b7363c9037bbb732b960b11b60448201526064016102f4565b60045460ff16156106255760405162461bcd60e51b81526004016102f490610949565b600454610100900460ff1661064c5760405162461bcd60e51b81526004016102f490610979565b60025460035461065c91906109a2565b42106106a25760405162461bcd60e51b8152602060048201526015602482015274151a5b595c88185b1c9958591e48195e1c1a5c9959605a1b60448201526064016102f4565b42600381905560405190815233907f878229cab17522b0aa9fe67ef166ba37857b7fdb46cd8748179a9d9a7373727f906020015b60405180910390a2565b60045460ff16156107035760405162461bcd60e51b81526004016102f490610949565b600454610100900460ff1661072a5760405162461bcd60e51b81526004016102f490610979565b60025460035461073a91906109a2565b42101561077d5760405162461bcd60e51b8152602060048201526011602482015270151a5b595c881b9bdd08195e1c1a5c9959607a1b60448201526064016102f4565b6004805460ff191660019081179091555460405147916000916001600160a01b039091169083908381818185875af1925050503d80600081146107dc576040519150601f19603f3d011682016040523d82523d6000602084013e6107e1565b606091505b50509050806108245760405162461bcd60e51b815260206004820152600f60248201526e151c985b9cd9995c8819985a5b1959608a1b60448201526064016102f4565b6001546040518381526001600160a01b03909116907f659e118aac903b953d9b454ca621f8502d4b988d0144ba287bdf3dee228bc8dc906020016105af565b600034116108a55760405162461bcd60e51b815260206004820152600f60248201526e4d7573742073656e642076616c756560881b60448201526064016102f4565b60405134815233907f2da466a7b24304f47e87fa2e1e5a81b9831ce54fec19055ce277ca2f39ba42c4906020016106d6565b6001600160a01b03811681146108ec57600080fd5b50565b60008060006060848603121561090457600080fd5b833561090f816108d7565b9250602084013561091f816108d7565b929592945050506040919091013590565b60006020828403121561094257600080fd5b5035919050565b60208082526016908201527515985d5b1d08185b1c9958591e481c995b19585cd95960521b604082015260600190565b6020808252600f908201526e139bdd081a5b9a5d1a585b1a5e9959608a1b604082015260600190565b808201808211156109c357634e487b7160e01b600052601160045260246000fd5b9291505056fea2646970667358221220b2f2190ae1a8bb79c7e039dec996494fa3b523e5f80272cd2a90f1f0a98981b164736f6c63430008140033",
  "linkReferences": {},
  "deployedLinkReferences": {}
}